:10400000007F00206D2B0100152A0100692B0100A3
:10401000692B0100692B0100692B0100692B01004C
:10402000000000000000000000000000692B0100FB
:10403000692B010000000000692B0100692B0100C1
:104040000000000000000000000000000000000070
:104050000000000000000000000000000000000060
:104060000000000000000000000000000000000050
:104070000000000000000000000000000000000040
:104080000000000000000000000000000000000030
:104090000000000000000000000000000000000020
:1040A0000000000000000000000000000000000010
:1040B0000000000000000000000000000000000000
:1040C00010B5054C237833B9044B13B10448AFF352
:1040D00000800123237010BD600700200000000055
:1040E0007012020008B5034B1BB103490348AFF33C
:1040F000008008BD0000000064070020701202006C
:10410000036808681847012A03D0022A03D0002058
:1041100070470160FBE70B680360F8E7012A03D0F2
:10412000022A03D0002070470160FBE70B680360A0
:10413000F8E7FFFF006809681B6812689FED097ABD
:10414000014403EB820293420AD011F9010B07EEFE
:10415000900AF8EEE77A67EE877AE3EC017AF2E705
:10416000002070470000003C012A03D0022A03D03F
:10417000002070470160FBE70B680360F8E730B48C
:104180000D460468286811461A680968234630BC41
:104190001847012A03D0022A03D00020704701608B
:1041A000FBE70B680360F8E7012A03D0022A03D07B
:1041B000002070470160FBE70B680360F8E70868C0
:1041C00007F0E0BF08B52DED028BB0EE408A15F088
:1041D0005DFAB4EEC08AF1EE10FA08DD78EE407AAE
:1041E0009FED087AF4EEC77AF1EE10FA07D4B0EE3C
:1041F000480ABDEC028BBDE8084015F0FBB8BDECE9
:10420000028B08BD6F12833A2DE9F04188461746AC
:104210001E468569044607F09CFF6B68C8E90001EB
:1042200014489847014630B1134807F0ADFF6FF0CE
:104230000500BDE8F0812B693946984710B16FF051
:104240000200F6E76B69A07A314698470028F6D15C
:1042500094F90930012B0BD16B690799207B9847A2
:104260000028ECD16B690699E07A98470028E6D1DE
:104270000020DEE7A9420000E9D4010008B528B912
:10428000064B074A07486B210EF08EFB30F8023CC4
:10429000C01ABDE8084007F075BF00BF76EE010008
:1042A000CFD7010038D5010038B505466B1E2B422B
:1042B000084605D00C4B0D4A0D4848210EF074FB02
:1042C00015B90023184638BD0029FAD06C1C01210D
:1042D000204407F055FF0028F3D004446B422340EC
:1042E000181A23F8020CEDE7BAD50100F8D701003F
:1042F00038D501001FB54268B2F5803F17D28368F8
:10430000B3F5803F13D20168019192B29BB2039141
:10431000684602A9ADF80020ADF80230ADF80820DB
:10432000ADF80A3003F0A2FD05B05DF804FB0148CA
:10433000FAE700BF0CFCFFFF30B507EE901A2DED39
:10434000028BF8EE678A012A20EE280A83B0054620
:1043500060EEA88A1BD115F00BFAFDEEC07AB0EE24
:10436000680A17EE904A15F003FA2C1B07EE904AE4
:10437000F8EE677A87EE800A15F088F9BDEEC00A7C
:104380008DED010A019803B0BDEC028B30BDFFF743
:1043900019FFB0EE408AB0EE680AFFF713FFBDEEDA
:1043A000C88AFDEEC07A18EE103A17EE904A1C1B30
:1043B000DBE7FFFF2DE9F0472DED028B066882B0A9
:1043C0000446F0EE408A002E00F0C280B368002B55
:1043D00000F0BE803569002D00F0BA80012920EE82
:1043E000200A68EE818A31D115F0C2F9BDEEC08A8B
:1043F000B0EE680A15F0BCF918EE103AF0EE408AFB
:10440000EB1A00EE103AB8EE400A80EE280A15F0DA
:104410003DF96268BDEEC00AF8EEC87A8DED000A7B
:10442000009B013B07EE103AB8EEC77AE8EE877AB8
:10443000FDEEE77ACDED017A019B009D3361B5F188
:10444000804FA26014D3434813F021FFFFF7BAFE58
:10445000BDEEC08AB0EE680AFFF7B4FEFDEEC07A8A
:1044600018EE102A17EE903AF0EE408AD31AC7E7FA
:10447000E3689B1AB5EBA30F0DD9AE001DB1304612
:1044800007F07CFE0546606808B107F07BFEC4E9D2
:1044900001553544E5604FF00008C146019B434596
:1044A0004ED9009B09F10109994549DCD4E9026321
:1044B0009E4208D046F8048BA660FCEEE87A17EE20
:1044C000903A9844EAE76368A6EB030A5FEAAA0514
:1044D00014BF2B460123ED1813D2B5F1804F10D233
:1044E00095B1A80007F04AFE0746606847F80A80C1
:1044F0003B1F0246B24209D052F8041B43F8041F86
:10450000F8E76FF04045ECE72F46EEE7131A23F08B
:10451000030304333B44A66811469C468E4204D0F4
:1045200051F804EB4CF804EBF8E7B61A1E4408B156
:1045300007F028FE07EB8505C4E90176E560BCE7D6
:1045400084ED048A002002B0BDEC028BBDE8F08748
:104550000148F8E7D7D6010015FCFFFF10B58368C6
:10456000044613B1032201469847204610BD70B59A
:1045700004460E46154633B1036000232373C4E995
:104580000165204670BD90000121704307F0F8FDE1
:1045900001232060F2E710B50446006818B1237BC0
:1045A0000BB107F0EFFD204610BDFFFF7FB5141ED5
:1045B000B8BF641806460D46E4B100232246012127
:1045C0006846FFF7D4FF0098B8B12D1BAD00A400DA
:1045D0002246711915F0BCFF2A463146301915F0F4
:1045E000C2FF22460099304615F0B2FF002468460B
:1045F000FFF7D1FF204604B070BD014CF7E700BFC4
:1046000016FCFFFF2DE9F047904699468A688368BB
:104610009A4205460F4663D14268496809EB080390
:10462000134499425CD1002A5DD044464FF0010A00
:1046300000263868AB682968F4B19A00013C02FB97
:10464000061102FB040015F083FF16B9BAF1000F42
:104650000FD06B68013BB34206D1BAF1000F00D115
:10466000013E4FF0000AE4E7BAF1000FF8D001363E
:10467000DFE74FF0010ADCE76A684FEA880692003C
:1046800003FB06005A4315F063FF6E68A246013E25
:10469000A1452ADD6B68AA68296804EB0800184464
:1046A0003B68920002FB061102FB003015F050FF40
:1046B00016B9BAF1000F10D06B68013BB34206D1B6
:1046C000BAF1000F00D1013E4FF0000A03E0BAF149
:1046D000000FF8D001360134DAE74FF0010AFAE7AB
:1046E0000348BDE8F0870348FBE70020F9E700BF77
:1046F00014FCFFFF12FCFFFFD0E901135943002314
:1047000099420AD0026802EB8302D2ED007A77EE7A
:10471000C07A0133C2ED007AF2E700207047FFFF54
:10472000F7B54B6842689A4205460E4616D18B682B
:10473000012B13D100246B68A34212D9A968286801
:104740008F0001AB6A4604FB070003F0D2FB33681D
:10475000009A03EB840301341A60ECE7024803B0CB
:10476000F0BD0020FBE700BF14FCFFFFF7B54B686E
:1047700042689A4205460E4616D18B68012B13D12A
:1047800000246B68A34212D9A96828688F0001AB86
:104790006A4604FB070003F092FB3368009A03EBC0
:1047A000840301341A60ECE7024803B0F0BD002036
:1047B000FBE700BF14FCFFFF2DE9F0438BB0174669
:1047C000129C6608721C9A4281460D4640F0818018
:1047D0000023224601216846FFF7C9FE0098002801
:1047E00075D0A54228BF25464FEA8508424649466E
:1047F00015F0AEFE0098621B00219200404415F0B7
:10480000CBFE202C009928D0402C58D0802C47D0AB
:10481000B4F5807F53D0B4F5007F50D0B4F5806FED
:104820004DD0B4F5006F4AD0B4F5805F47D02A4B25
:104830002A4A117879B100211170274A284929485C
:1048400093423ED107F0A0FC23464FF48052202132
:10485000254807F099FC254C1BE01023ADF81030DB
:10486000234BADF820409A89ADF81C209A685B680C
:104870000593204B0692099307EBC60600233A46A0
:1048800004A804F009FA7B683360002373600024F5
:104890007B606846FFF77FFE20460BB0BDE8F083E3
:1048A0004023ADF81030144BADF820409A89ADF894
:1048B0001C209A685B6805930692104BDBE7104B4F
:1048C000B6E707F061FC0F4807F05EFCC3E70E4C4B
:1048D000DFE70E4CE0E700BF05FCFFFF0000002013
:1048E0004CD6010051D6010056D601000AFCFFFF4C
:1048F000A8E1010028E10100B8E1010028DF010082
:1049000010FCFFFFB4D6010016FCFFFF11FCFFFFF7
:104910002DE9F04F2DED028B4B0889B003F1010812
:1049200005460E464FEA81094FEAC8000121079368
:1049300007F026FC0746F8B10121484607F020FCA5
:104940000446B0B173089B00039300EB030C06957B
:10495000024600EB09012B46624503F108030ED025
:1049600053F8080C42F8040B53F8040C41F8040DFA
:10497000F2E7384607F006FCDFF8149116E0F3077B
:1049800005D5039BA944E31859F8042C1A60009636
:1049900043463A4631462046FFF70EFF814658B15E
:1049A000204607F0EFFB384607F0ECFB484609B01D
:1049B000BDEC028BBDE8F08F700013F059FECDE91D
:1049C0000401BB46CA46504613F052FE2EA3D3E95B
:1049D000002313F0C7FEDDE9042313F0EDFF14F00C
:1049E000B9F900EE100A08EE100A14F049FDF0EED5
:1049F000408AB0EE480A14F0EBFEDBED017A5B462C
:104A000020EE270AD3ED007A069BA7EEA80A0AF14A
:104A1000010AD0450BF1080BA3EC010A0693D2D88A
:104A2000079BA6EB030A039B07EBCA0A1D44B0458C
:104A300005F10405B4D2404613F01AFE12A3D3E9DF
:104A4000002313F08FFEDDE9042313F0B5FF14F00B
:104A500081F900EE100A08EE100A14F011FDF0EED4
:104A6000408AB0EE480A14F0B3FE5AED017AAAF17A
:104A7000080A27EEC00ADAED007AA7EEA80A08F1C4
:104A8000010885ED000AD2E7182D4454FB210940A6
:104A900016FCFFFF2DE9F0472DED048B9FED309ABA
:104AA000824688460027F7EE008ADAF80430BB42D7
:104AB00050D9DAF80850002D4AD0DAF800404FEA11
:104AC000850909FB074429462046FFF721FF0028F6
:104AD00041D1264604EB0903B34206D0D6ED007A55
:104AE00077EEA77AE6EC017AF6E7B8F1010F2FD15D
:104AF00007EE909AF8EE677A94ED008A88EEA70A9E
:104B0000B5EEC00AF1EE10FA1CDB14F0ABFE28EE95
:104B1000008A6D00A4EC018AB44219D007EE905AC5
:104B2000F8EEE77A94ED008A88EEA70AB5EEC00A9F
:104B3000F1EE10FA09DB14F095FE28EE008AA4ECE1
:104B4000018AE9E7B0EE490AE1E7B0EE490AF4E785
:104B50000137AAE70020BDEC048BBDE8F08700BF59
:104B60000000000010B518B311B3012803D181ED86
:104B7000000A002010BD421E07EE102A70EEC07A17
:104B8000F8EE476A0C4687EEA67A002307EE903AC5
:104B9000F8EEE77AF0EE406AE7EE276A01339A42D0
:104BA000E4EC016AF2D801EB800141ED010AE0E793
:104BB0000048DFE710FCFFFF2DE9F843DFF8B8906D
:104BC000DFF8B8802DED048BDFED269A0646002431
:104BD000D6E901235343A3423FD933689FED220A0C
:104BE00003EB840753F8243003EB090505EA0805B5
:104BF0005B1B07EE903AB7EE008A37EEC88AB0EE3C
:104C0000691AF0EE480A14F087FD9FED181AB0EE0D
:104C1000409AF0EE480A9FED160A14F07DFD68EE0A
:104C2000088AB0EE401AF0EE680AB0EE490A14F0B5
:104C300073FDB0EE481AF0EE680A14F06DFDB0EEA8
:104C4000401A00EE105ADFED0B0ABAEEE40A14F037
:104C500063FD013487ED000ABAE7BDEC048B002048
:104C6000BDE8F8836DF48EBE78606C3E2D71FFBE9A
:104C70001AE5A93E1872313F5555D5C0000080FF96
:104C800010B52DED048BD0E901218CB003684A43A7
:104C900068460121FFF76BFC01220023114604A89E
:104CA000FFF765FC049B002B50D004A96846FFF772
:104CB00037FD0446002839D101220346114608A8D1
:104CC000FFF755FC089B002B3ED008A96846FFF76C
:104CD0004DFD044638BB049BD3ED009A089B93ED31
:104CE000008A38EE698AB7EE009A18EE100A13F0BF
:104CF000E1FC18A3D3E9002313F0A6FF08BBC9EE1B
:104D0000088A6846B0EE690AFFF7F6FC044650B917
:104D1000F4EE498AF1EE10FA05D0B0EE680A684662
:104D2000FFF7E8FA044608A8FFF735FC04A8FFF7E8
:104D300032FC6846FFF72FFC20460CB0BDEC048B1C
:104D400010BDF0EE498ADCE7014CECE7004CEDE7E2
:104D500016FCFFFFFCA9F1D24D62503F012970B54E
:104D6000DFED2E7A02D8C2ED007A70BD8D080346C1
:104D700004462E4610348EB114ED047A77EE877A0D
:104D800014ED037A77EE877A14ED027A77EE877A5C
:104D900014ED017A013E77EE877AEBE700EB051020
:104DA00001F0030600EB86060446B44204D0B4ECDE
:104DB000017A77EE877AF8E707EE101AB8EE477AAD
:104DC000C7EE876ADFED157A1033CDB113ED046AB3
:104DD00036EE666A013DE6EE067A13ED036A36EEBC
:104DE000666AE6EE067A13ED026A36EE666AE6EE6B
:104DF000067A13ED016A36EE666AE6EE067AE3E7B6
:104E0000844206D0B0EC016A36EE666AE6EE067AB7
:104E1000F6E7C7EE876AC2ED006AA6E70000000069
:104E2000D0E9003182684A43074903EB820293428A
:104E300009D0F3EC017AF5EE407AF1EE10FAF6D1F2
:104E400043F8041CF3E77047FFE6DB2E70B500243F
:104E5000054626462B6893F83C30A3420BD96B6875
:104E600053F8240028B10368DB6898476B6843F85F
:104E700024600134EEE770BDDFED247A9FED241A43
:104E800080EE270A10B5234CF7EE007A30EE277A31
:104E90002DED048B17EE103A1C44E40DE4051B1BAA
:104EA00008EE103A38EE678A9FED1B0AF0EE480ACA
:104EB00014F032FCF0EE480AB0EE409A9FED171A5B
:104EC0009FED170A14F028FC68EE088AB0EE401A2D
:104ED000F0EE680AB0EE490A14F01EFCB0EE481A73
:104EE000F0EE680A14F018FCB0EE401A00EE104A1A
:104EF000DFED0C0ABAEEE40A14F00EFCBDEC048BF4
:104F0000DFED097A20EE270A10BD00BF00002F4414
:104F10006DF48EBE5555D5C078606C3E2D71FFBEC8
:104F20001AE5A93E1872313F00E08C44DFED077AA4
:104F300008B580EE270A14F0EBFAF7EE007A30EEAF
:104F4000670ADFED037A20EE270A08BD00E08C44F3
:104F500000002F4410B50446C06808B107F012F9EC
:104F6000206908B107F00EF9204610BD2DE9F8437D
:104F70000F460546B0B1C66800244FF01808F36D1F
:104F8000A34213D92B690BB153F82430326E08FBBE
:104F900004223946D2F80C9052692846C84718B9FD
:104FA0000134ECE76FF00A00BDE8F8830020FBE76E
:104FB0002DE9F74F4FF0000900900D460193C846C8
:104FC0004F466FF07F0B019B994570D0009B29786D
:104FD0001E68D6E90143032903FB04F4274438D0B3
:104FE000092910D0012955D100218C425AD03268AC
:104FF00002EB810208EB010013686A6802EB800291
:1050000001311360F1E74FF0000AD6E90123534361
:10501000534508EB0A0446D93368D5ED037A03EB10
:105020008A0393ED000A80EE270A14F0A1FB2A6997
:105030006B680AF1010ABDEEC00A10EE101A1144A5
:105040007F290A46A8BF7F225A45B8BF5A461A553B
:10505000DBE74FF0000AD6E901235343534508EB41
:105060000A0420D93368D5ED037A03EB8A0393ED64
:10507000000A80EE270A14F07BFB2A696B680AF1AC
:10508000010ABDEEC00A10EE101A114481F30802A5
:105090001A55E0E70D4807F077F86FF00C0003B001
:1050A000BDE8F08F444409F10109A0468BE7A969E6
:1050B000B7EB910F08D0B94206D005483A4607F041
:1050C00063F86FF01700EAE70020E8E7AED10100CF
:1050D000D2D10100D1E9013270B50C460178032923
:1050E00002FB03F230D0092915D0012945D183698B
:1050F000B2EB930F08D0042193FBF1F1224807F0A3
:1051000043F86FF0170005E0416820681A4615F073
:105110001FFA002070BD81699142EFD100229142B7
:10512000F7D02368066990ED037A03EB82054368A4
:105130009B569B1B07EE903AF8EEE77A013267EE3A
:10514000877AC5ED007AEAE781699142D6D10022DB
:105150009142DED02368066990ED037A03EB820565
:1051600043689B5C9B1B07EE903AF8EEE77A0132AE
:1051700067EE877AC5ED007AEAE7044807F004F89D
:105180006FF00D00C6E700BF1FD2010061D2010021
:105190002DE9F04F2DED048B0B46897883B0032960
:1051A0000746119D9DF8486063D193F90910481E88
:1051B0000D285CD8DFE800F007BF111E11242A2A51
:1051C00035405B4952525D4806F0DEFF6FF0090042
:1051D00003B0BDEC048BBDE8F08F1178092900F015
:1051E000AA8001F0FD03012B00F0A580544806F0D1
:1051F000CBFFEBE71B7D002B00F09D805148E3E7E0
:105200001B7D002B00F097804F48DDE711780929BE
:1052100000F0918001F0FD03012B00F08C804B48E1
:10522000E5E71178092900F0868001F0FD03012BE4
:1052300000F081804648DAE7117809297BD001F037
:10524000FD03012B77D04348D1E71178092972D0AB
:1052500001F0FD03012B6ED03F48C8E71178092902
:1052600069D001F0FD03012B65D03C48BFE73C4805
:10527000BDE7052901D10020AAE795F86040002C80
:10528000F9D11378D2F80480092B23D0B0F87290AA
:10529000344ADFF8D4A04C45EDD24FEA840BB8EC89
:1052A000018A76B17B6F0192104653F8241006F004
:1052B0006BFFB0EE480A06F051FF504606F064FF5F
:1052C000019A7B6F53F80B30AB6085ED038A013494
:1052D0000835E0E7D2ED047A92ED039ADFF884B066
:1052E000DFF88490F8EEE78AB7F87230A342C2D9AB
:1052F00018F9043008EE103AB8EEC88A4FEA840A6A
:1053000038EE688A28EE098A66B17B6F584653F8F2
:10531000241006F039FFB0EE480A06F01FFF484699
:1053200006F032FF7B6F53F80A30AB6085ED038ADD
:1053300001340835D8E76FF0140049E79AD201002C
:10534000DFD2010014D3010045D3010077D301005F
:10535000A9D30100DDD3010011D4010043D4010021
:1053600074D40100A7D40100750002002DE9FF4BA1
:105370001D468B690F9E9B689DF8408081460F46B5
:105380001446984768BB06F0E4FE041B61EB050574
:10539000AC46A346C6E914BC4FF47A7200232046FB
:1053A000294613F027FD01463064B8F1000F02D002
:1053B0000D4806F0E9FE0E9B0093CDE90168DDE99A
:1053C0000C2339464846FFF7E3FE044628B906F0A9
:1053D000BEFE023008BF6FF00104204604B0BDE8F5
:1053E000F08B6FF00204F8E7CCD401002DE9F04314
:1053F000064685B00F46154698460024F06890F89A
:105400005430A34213D9826D02EB4412D2E9029CBC
:10541000117E5369127985F86020CDE90015CDE938
:1054200002C822463946C84740B90134E6E706F0CB
:105430008EFE831C0CBF6FF00100002005B0BDE89C
:10544000F08307B5002015F067FE0DF10703181A69
:1054500003B05DF804FBFFFF30B52DED028B0E208D
:1054600083B00FF053FA184C184D9FED198A207035
:10547000A62010F0C1FC0E200FF048FA94F900307D
:1054800007EE900AB8EEE77A07EE903AF8EEE77A80
:105490007F23E7EE087A009340F2FF326FF07F033C
:1054A000FDEEE77A002117EE900A0FF0E3FB04F817
:1054B000010FAC42DCD10749074803B0BDEC028BB9
:1054C000BDE830400FF020BD81070020F01E002015
:1054D00000000000A0D1010000300020036913B5D6
:1054E00004463BB1019383680BB912F0EEFEC3682A
:1054F00001A99847002323612046FFF72FF8204693
:1055000002B010BD1FB501938368CDE902210BB92C
:1055100012F0DBFEC46801AB02AA03A9A04704B0E5
:1055200010BDFFFF2DE9F04F3A4B1C682DED028BAB
:10553000E36887B0064688469146002B66D022690C
:10554000002A63D02068721801698A4260D86268B4
:10555000B11A3AD54B46424631462068FFF7D2FF92
:105560000546002836D14F4609EB8803C9EB860B68
:105570006FF0404A9F4233D06168E06897ED008A3F
:10558000D4ED027AB14289BF226990ED007A5A4483
:10559000D21988BF92ED007AF0EE486AE7EE676AAA
:1055A0000129C7ED006A05D04FF0FF320193FEF7E5
:1055B000FDFF019B62680AEB0201E26802EB8102D7
:1055C00082ED008A04370136D4E7FFF79BFF0546DA
:1055D0000028BFD0284607B0BDEC028BBDE8F08F95
:1055E000636943446361237E002BF3D04B46012261
:1055F000414602A8FEF7BBFF9FED070A02A8FEF78F
:1056000079FE054602A8FEF7C6FFE3E7034DE1E792
:10561000034DDFE77C0700200000003816FCFFFF89
:105620000EFCFFFFF8B597000446C0E900120376B0
:1056300080ED020A0E4638460121154606F0A0FD0F
:105640000121E060384606F09BFD00229542626130
:10565000B8BF32692061BCBF52196260E26803467C
:1056600032B128B131692A46491B3046FFF74AFF5B
:105670002046F8BD2DE9F04F2DED028B804685B018
:105680008B4650693F49D2F808A09FED3F8ADFED75
:105690003F8A15F02FFD00240028D8F8107014BFA1
:1056A0004FF003094FF001092646D8F81030A34205
:1056B00065D9B7F5806F3D4628BF4FF4806500235C
:1056C000524629466846FEF752FF009B43B968469A
:1056D000FEF761FF2E4805B0BDEC028BBDE8F08FF0
:1056E0002A4621464046FFF70DFF009ADFED295A72
:1056F0009FED295A02EB8501914239D0F2EC017AF3
:10570000FCEEE77AB9F1030F17EE903AC3F30740C6
:1057100007EE900AF8EEE77AC3F3072087EE886A6F
:10572000DBB207EE900AF8EEE77A06F1010087EEA9
:10573000887A08BFF01C07EE903AF8EEE77A18BFB7
:1057400027EE287AC7EE886ADBF8003003EB860381
:10575000064615BFA6EE257A83ED006AA6EE857A89
:1057600083ED017A0CBFC3ED026A83ED007AC3E7D3
:1057700068467F1BFEF70FFF04F5806495E7002065
:10578000A9E700BFD5D5010000007F43A245163F21
:1057900016FCFFFF8716993ED578E93D2DE9F843C1
:1057A0000568D3F800800C681668D5E902031B6A07
:1057B000B4FBF0F45C43B6FBF0F64FF0000903FBDA
:1057C0000646A64216D90027AA68BA4207EB090383
:1057D0000BD96A682868D15D08EB83030122214454
:1057E000FFF790FE38B90137EEE7EA68126A99468A
:1057F0001444E6E70020BDE8F88310B504460068CD
:1058000008B112F031FD204610BD38B504680546D8
:1058100034B12046FEF7BFFE1021204612F02EFDC7
:10582000284638BD002238B50B680A600568036059
:10583000044635B12846FEF7AEFE1021284612F088
:105840001DFD204638BD10B50446006808B106F0BD
:1058500099FC204610BDFFFF08B5D0E90032D21AEE
:105860009210914202D3024812F014FD08BD00BF0D
:1058700085D7010013B50B460446D0E900016A46FE
:1058800082E8030093E8030084E8030092E8030041
:1058900083E8030002B010BD38B505460C46FFF79B
:1058A000E9FFAB68A268AA60A360E268EB68EA60FF
:1058B000E36038BD1FB5D0E90232116A04688B423B
:1058C00012D02269B2FBF1F25343036200F11004DB
:1058D000074B009003936846064B02932146FFF75F
:1058E000DBFF6846FEF73AFE204604B010BD00BF5D
:1058F0009D570000A94100001FB5084B0093084BBD
:1059000003930146074B029304466846FFF7C4FF22
:105910006846FEF723FE204604B010BD2555000062
:105920007F4100009341000070B582684B682DED07
:10593000028B9A428EB00E4662D18B68012B5FD1EA
:1059400043680068029003FB02F094B299B28000B1
:10595000ADF80410ADF80640ADF80C40ADF80E10EF
:1059600006F00CFC274B0593274B0893274B04901C
:105970000446079309A9002305A80B93FFF77AFFB4
:10598000079B0B9A0B93089B079205A80C9A089209
:10599000CDE90C34FEF7E2FD049B43B303A901A853
:1059A00002F073FA044618BB9FED198A0546BDF84C
:1059B0000C30AB421CD9BDF80E10049B880005AA20
:1059C00005FB0030FFF7CAF99DED050AB5EEC00AE8
:1059D000F1EE10FA08DB13F045FF336803EB8503A3
:1059E00083ED000A0135E2E7B0EE480AF5E7094C1D
:1059F00009A8FFF773FD20460EB0BDEC028B70BD09
:105A0000054CF8E785C10000014100000741000096
:105A10000000000016FCFFFF14FCFFFFFFFFFFFF6C
:105A20002DE9F04F4E1E8A46416895B0CDE900231E
:105A300005460223826896FBF3F604A8002301EBD7
:105A40004601FEF794FD049B002B00F0DD80B6B20A
:105A50003346324604A92846FEF7D4FD0446002802
:105A60006DD103460122069908A8FEF780FD089B28
:105A7000002B00F0C7802346012206990CA8FEF7F0
:105A800076FD0C9B002B00F0BB806B68A3425FD9B6
:105A9000069A049B910004FB013310A85146FEF7BF
:105AA00066FD109A002A40D01299099B99424DD167
:105AB0000A9B012B4AD1089BDDF844E0890003EBE7
:105AC00001081846404512D1AA689200D7186243CF
:105AD000D21A9F4224D0296898180144B3EC017A65
:105AE000D1ED007A77EEC77AC1ED007AF1E7DFED0C
:105AF0004A7A17464FF0000CE64507D097ED007A3A
:105B00000CF1010C77EE877A0F44F5E707EE10EA07
:105B1000F8EE476A043287EEA67AA0EC017AD1E764
:105B200010A8FEF738FD0134AFE73C4C10A8FEF793
:105B300032FD0CA8FEF72FFD08A8FEF72CFD04A8E7
:105B4000FEF729FD204615B0BDE8F08F344CEDE797
:105B50003346324604A92846FEF754FD0446002881
:105B6000E7D107466B68BB4242D9069A049B910075
:105B700007FB013310A85146FEF7F9FC109B8BB3CD
:105B8000009B53B30CA910A8FFF7CEFE064650BBEE
:105B9000069E2B68DDF83090B60006FB07384E44B1
:105BA000B1451AD0D8F8000059F804BB12F082FDB4
:105BB000CDE90201584612F07DFD15A3D3E900237B
:105BC00012F01AFC02460B46DDE9020112F0F4FE67
:105BD00013F0C0F848F8040BE2E710A8FEF7DBFC6E
:105BE0000137BFE70D4E10A8FEF7D5FC3446A0E7FD
:105BF000019B002B9DD02846FFF742F8044698E70A
:105C0000064C96E7054C97E7044C98E7AFF3008005
:105C1000BBBDD7D9DF7CDB3D0000000016FCFFFFD9
:105C200014FCFFFF2DE9F0472DED028B8CB01546DB
:105C3000BDF858804FEA580297B27E1C9E428146BA
:105C40008A467FD10132964206D03F4E30460CB094
:105C5000BDEC028BBDE8F087F00006F08FFA3B4BFD
:105C600003933B4B06933B4B05930446002303A849
:105C700007A90993FFF7FEFD059B099A0993069B67
:105C8000059203A80A9A0692CDE90A34FEF766FC4B
:105C900074BB3148314E06F077FA07A8FFF71EFCB7
:105CA000002ED3D107EE908AF8EE677A17EE900AAD
:105CB00012F000FD0B4602462949002012F07CFE3E
:105CC0002B1D8046894603EB8707D5ED007A67EEEA
:105CD000A77A17EE900A12F0EDFC42464B4612F0FE
:105CE00041FD13F037F845F8040BAF42EDD1ADE7B5
:105CF0003346CDF80080224651464846FEF75CFD0B
:105D000006460028C9D104EBC7099FED168AAA46AA
:105D100009F1080994ED010AD4ED007A20EE000A99
:105D2000A7EEA70AB5EEC00AF1EE10FA07DB13F0F2
:105D300099FD0834A145AAEC010AEBD1ADE7B0EE1C
:105D4000480AF6E7084E81E711FCFFFF85C1000015
:105D5000014100000741000039D6010016FCFFFF99
:105D60000000F03F0000000014FCFFFF38B50446BF
:105D70000D460023836001462846FFF77BFDAB6894
:105D8000A268AA60A360E268EB68EA602046E3606C
:105D900038BDFFFF2DE9F04FD1B09B46DDF8708193
:105DA000D8F81830079392460446894606F0D1F990
:105DB0002C4B409340AD2C4B4393CDE908012B4B2A
:105DC000429329460BA8FFF7D1FF20AE00232846B7
:105DD00030AF0F93FEF7C2FB3346CDE9005710AA50
:105DE00008A94046FEF710FA034628BB94F8542051
:105DF00094F83C30134400935A465A9B10A94846E5
:105E0000FFF7D6F80346B8B99DF8743104935B9B4D
:105E1000CDE90065CDE902734146DDE9082320465E
:105E2000FFF7A4FA5B9B93F8603005466BB9079BBC
:105E30000C48DB6898472B460BA80793FFF74EFBEF
:105E4000079B184651B0BDE8F08F94F83C309A4457
:105E5000304659F83A10FFF73DF903460028E6D0DE
:105E6000EAE700BF7D420000014100000741000059
:105E70002DE9F04F2DED0E8BE3B0924609939DF87E
:105E8000E8310C93099B68229B690D9381468B46F0
:105E90005046002114F080FBCF4B529352ACCF4BB5
:105EA00055932146CE4B54931DA8FFF75FFF002367
:105EB00020462193FEF752FB42ABCDE9004322AAD4
:105EC00032AB16A90998FEF79FF9054600285AD16A
:105ED0009DF88830092B02D0032B40F0238206F076
:105EE00038F9239CD9F818300A93CDE90E01002C1B
:105EF00052D11846012106F043F9012304460B93C1
:105F0000D9F84030D9F85820DB68156958699A6883
:105F1000B4499DED268ADDED258A109215F0EAF848
:105F2000002814BF0323012311930026DBF810304F
:105F30009FEDAD9A9FEDADBA0793B8EEC88AB04613
:105F4000DBF81030B34240F29A81079B109AB3F508
:105F5000806F28BF4FF4806308930899002319A825
:105F6000FEF705FB199BCBB919A8FEF714FBA04956
:105F7000A04806F009F96FF0040524B10B9B13B19A
:105F8000204606F0FFF81DA8FFF7A8FA284663B0E0
:105F9000BDEC0E8BBDE8F08F0023B0E7089ADFED73
:105FA00096BA9FED96CA9FED96DADFED96CADFEDC1
:105FB000969A9FED96AADFED96AA31465846FFF7CE
:105FC000A1FA0027089B9F4200F05081199B119A6B
:105FD00003EB8703D3ED007AFCEEE77A032A17EE92
:105FE00090CACCF307424FEA1C2E00EE102A5FFA4B
:105FF0008EF206EE902A5FFA8CF204EB080308F1A9
:10600000010107EE902A40F09780F4EE498A08F1EA
:106010000202F1EE10FA04EB0100224408F1030140
:1060200026D19FED7C7AB4EE478AF1EE10FA1FD1AB
:10603000F5B9B8EEC00AF8EEE77A30EE4D0A77EE21
:10604000CD7ABDEEC07AB8EEE60A17EE10CA30EE91
:106050004D0A83F800C0BDEEC07AFDEEE77A17EE78
:10606000103A037017EE903A137001378846A9E78B
:106070005FFA8EFE07EE90EA5FFA8CFCB8EEE7EA74
:1060800007EE90CAB8EEC00AF8EEE7DA85BB80EEFC
:106090002C0A8EEE2CEACDEEACDACDE91423CDE954
:1060A000121080EE280A13F063FB159B38EE000AED
:1060B000FDEEC07A8EEE280A17EE90CA83F800C073
:1060C00013F056FB38EE000A1398FDEEC07A8DEE01
:1060D000A80A17EE903A037013F04AFB38EE000A54
:1060E000149AFDEEC07A17EE903A13701299BCE73D
:1060F000022D18D1C0EE2C7A9FED477A77EEE97A1F
:1061000087EE8A0ACEEE2C7A77EEEA7A87EE87EA75
:10611000CDEEAC7A9FED417A77EEC77A9FED407A6B
:10612000C7EE87DAB9E7042D02BF30EE4D0A3EEE26
:106130004DEA7DEECDDAB0E7F4EE498AF1EE10FAE1
:1061400027D19FED347AB4EE478AF1EE10FA20D1D0
:10615000FDB916EE900A10EE10CA49F245624243AC
:1061600044F68B4000FB0C2217EE90CA41F62F50EC
:1061700000FB0C22121407EE902AF8EEE77A77EE75
:10618000CD7AFDEEE77A17EE902A02F307021A7035
:106190006BE7B8EEC07AF8EEE77AB8EEE60A002DC3
:1061A00040D187EE2C7A80EE2C0AC7EEAC7ACDE98E
:1061B000121320EE0B0AA7EE2B0AA7EE8C0A80EE34
:1061C000280A13F0D5FA139B38EE000AFDEEC07AC8
:1061D00017EE902A1A7089E77D4200000141000005
:1061E00007410000D5D501008180803BA245163FC4
:1061F00016FCFFFF65DA01008716993ED578E93D68
:106200000000004300007F43EC51F83EFA7E6A3EF6
:10621000D578E93E000000C34260653E3BDFCF3EDB
:106220006666663E022D18D1C7EE2C6A1FED066A1F
:1062300076EEE96A86EE8A7AC0EE2C6A76EEEA6A33
:1062400086EE860AC7EEAC6A5FED0C7A1FED0C6A2B
:1062500076EEE76AC6EE867AA9E7042D02BF37EE2E
:106260004D7A30EE4D0A77EECD7AA0E7079B19A85C
:10627000DB1B079306F58066FEF78DF960E605F0F7
:1062800066FF831C4CD005F064FFDDE90E23821A03
:1062900061EB030310461946CAE9120100234FF4CB
:1062A0007A7212F0A7FD0C9BCAF83C000146F3B1CC
:1062B0001E481F4D05F068FF0A9B234426461F46D3
:1062C000B74211D016F9013B269ADDED257A9B1ACB
:1062D00000EE103AB8EEC00A20EE270A05F03EFFA5
:1062E000284605F051FFEBE7124805F04DFF05F099
:1062F00030FF0B460C99CDE903A142A9029152A9A6
:10630000019132A90246009148460999CDE9162328
:10631000FFF72CF80D9B0546DB68074898472CE6ED
:1063200005462AE66FF008052DE600BF86D201007B
:10633000930A0200750002007D420000F7B5044692
:1063400015460E466822002128461F4614F024F9FF
:10635000A26D0097D36831462A462046FFF788FD94
:1063600003B0F0BD2DE9F04F9BB0164605910693A2
:106370000446002800F0AA81C068002800F0A68129
:10638000002A00F0A381002900F0A08190F8642089
:10639000836D0E2AD3E9025125D844F6A403D340D5
:1063A000DA0720D590F87130EBB9B34B9D421AD182
:1063B0000B7DC3B190F83C30012B14D1036C9A686B
:1063C000AE4B9A420FD1069B05993246FFF7B6FFB6
:1063D000054620B931462046FEF7C8FD0546284649
:1063E0001BB0BDE8F08F68220021304614F0D4F8CD
:1063F000E36893F83C5093F854301D444FEAC508C5
:10640000404611F03DFF424600210746109014F02F
:10641000C3F8A81C800011F033FF042300F1080822
:106420000022C0E9003581464346029202998D421E
:1064300004D0013143F8042B0291F7E7B8F1000FC3
:1064400008D18F4805F0A0FE6FF0070510A8FFF7F0
:10645000D4F9C4E705F07DFECDE908010025CDF8AB
:1064600010800395E36893F83C20AA4240F2CE8066
:106470001A6C69016B01D31852580B925A68079233
:106480009A680C92DA680A921A690D9210205A6979
:10649000DB690E920F9311F0C5FE0DF1680B00231E
:1064A000079A82460121FEF762F84BF824AD049862
:1064B0005946FFF7B7F95846FFF7A7F9049B53F879
:1064C000042B04934FEA850A9AB929466D4805F0D2
:1064D0005BFE6FF00705D9F80440A40008EB040741
:1064E0003E46B04500F0E680043E3046FFF78DF9A9
:1064F000F7E71168B1B92946624805F045FED9F8B9
:10650000044008EB8404A04504D0043C2046FFF777
:106510007CF9F8E7D9F8041002318900484611F0F7
:10652000B1FED6E747F8352007EBC5020B9B536059
:10653000039B079A1344E268039391698B4205D940
:10654000514805F021FE6FF00405C4E7059B119347
:106550000D9B12930E9B5846CDE9133200221792E1
:10656000FFF7A8F90F9B8346002B38D0474B1B78C9
:106570004BB94749474805F007FE474805F004FE78
:10658000424A012313706268079252F80A305BB9DD
:106590002068036C90ED0E0A6A011344D969D8682B
:1065A0008847079A42F80A00636853F80A0040B324
:1065B000E36802680096D2F804A093ED0E0A57F83B
:1065C00035200A9B5946D04790B10146334805F023
:1065D000DBFD6FF0040515A8FDF7C0FF7BE7E3685E
:1065E0000A9A93ED0E0A57F835100C9B9847EBE783
:1065F00005F0ADFD831C07D015A8FDF7AFFF0135F1
:1066000030E76FF00A05E6E70546E4E705F0A1FD8F
:10661000DDE90823821A61EB030310461946C6E937
:10662000120100234FF47A7212F0E4FB069BF06330
:106630000146002B50D01A481A4D05F0A5FD4FF029
:10664000000B029B5B4544D057F83B307BB34FF0C7
:10665000000A57F83B209168514525D9126802EB92
:106660008A0292ED000A05F079FD284605F08CFDBE
:106670000AF1010AEDE700BF955D000075560000C4
:106680008ADA0100BADA0100F3D90100800700209C
:106690004CD6010051D6010089D9010065DA01000C
:1066A00086D20100930A0200134805F06DFD0BF13C
:1066B000010BC6E7A4086FF0030000FB0470083864
:1066C00041680231890011F0DDFDBFE66FF015056C
:1066D00085E60A4805F058FD069B324639462046B5
:1066E000FEF784FE054600287FF4F5AE31462046CD
:1066F000FEF73CFC0546EEE67500020039DB0100C2
:1067000013460A4601460148FFF72CBE081F002029
:10671000F0B52DED028B0022A7B01146A04800F085
:10672000F3FDA0499E480EF0D6FB012200219C48B3
:1067300000F0EAFD9C490CA80EF033FD9B490CA823
:106740000EF08BFD014696480EF0C0FB0CA80EF033
:10675000DDFC09200FF0F8F90446002840F088809D
:1067600093490CA80EF01DFDFEF76BFE0A220146B0
:1067700007A80EF035FD07A90CA80EF06EFD014626
:106780008C480EF0B7FB07A80EF0C0FC0CA80EF06A
:10679000BDFC834800F0A4FD22462146804800F05D
:1067A000B3FD85497E480EF096FBFEF755FE834902
:1067B0000CA80EF0F6FCFEF744FE0A22014607A8DC
:1067C0000EF00EFD07A90CA80EF047FD0146794812
:1067D0000EF090FB07A80EF099FC0CA80EF096FCAA
:1067E00041F270730B93764B0C93764B0F9307A982
:1067F000754B0E930CA80994FFF74EF80CA8FDF703
:10680000ADFE72490CA80EF0CCFCFEF71AFE0A226F
:10681000014604A80EF0E4FC04A90CA80EF01DFD2E
:10682000014664480EF066FB04A80EF06FFC0CA84D
:106830000EF06CFC5A4800F053FD224621465848A1
:1068400000F062FD624956480EF045FB6822214681
:106850000CA813F0A1FE22460CA907A8FFF750FFD1
:1068600050B15C4953480EF04FFB07A8FDF776FE88
:1068700027B0BDEC028BF0BD57494E484D4D574FE8
:106880000EF042FB564904A80EF08BFCFEF7D9FD32
:106890000A22014601A80EF0A3FC01A904A80EF0EB
:1068A000DCFC014643480EF025FB01A80EF02EFC4F
:1068B00004A80EF02BFC16AE0CACA16828460EF016
:1068C0000AFB394628460EF006FBE06811F0F2FE9E
:1068D000083441EC100B032128460EF00DFCB442A5
:1068E000EBD1DFED407A314E0EAD18AC95ED018A5B
:1068F000B4EEE78AF1EE10FA05DD296830460EF0B5
:1069000081FCF0EE487A0835AC42EFD117EE900AE0
:1069100011F0D0FE20A3D3E9002312F0B3F9002830
:10692000A3D0314921480EF0A4FC054660B1C8212E
:106930000B200EF0C5F8012108200FF0F9F8002116
:106940000A200FF0F5F890E7284918480EF091FC5E
:10695000044650B1C8210B200EF0B2F801210A20E4
:106960000FF0E6F829460820EBE721490F480EF022
:1069700080FC48B121460B200FF0DAF821460A20AE
:106980000FF0D6F82146EEE71A4908480EF03AFC17
:106990006BE700BFAFF30080333333333333E33F70
:1069A0001C1F0020CAD80100E1D80100F41E0020FD
:1069B000EBD8010000300020F3D8010000D901001D
:1069C00081070020354100006941000012D9010013
:1069D00021D901002FD9010045D9010097D201002A
:1069E0005DD901000000000074D9010079D90100CF
:1069F0007FD9010084D901002DE9F04F2DED048BE2
:106A00009BB08946BDF8A0100491BDF8A410059173
:106A10002B992A9DBDF8B0A08046B0EE601A09B946
:106A200059082B91BAF1030F03D8002D08BF4FF47A
:106A3000967507EE903A1AA8F8EE679A002114911D
:106A4000CDE911111391F0EE400A40F8282D51467E
:106A5000B0EE690AFDF7AEFC074600283BD1DDE940
:106A600011239B1AD8F80420B2EBA30F40F0A381A6
:106A7000D8F808300499994240F09D81B9F1000F8F
:106A800009D0D9F80410914240F09581D9F8081046
:106A9000012940F090815A43002000239A4206D0F9
:106AA000D8F8001001EB830101330860F6E7059B7D
:106AB0004FEA530B0BF101030393049B9C1CA300AF
:106AC00004212046069305F05BFB064660B9BE48EC
:106AD000BE4F05F059FB11A8FEF7B5FE38461BB0B6
:106AE000BDEC048BBDE8F08FA3000C93B84B0F9363
:106AF0000CA9B84B0E9315A8FFF738F90CA81996F6
:106B0000FDF72CFD07EE905AB8EE679AB0EE490AF1
:106B1000FEF7B2F9DDED2B7AF8EE678AB0EE408A27
:106B2000B0EE680AFEF7A8F93146F0EE400A2046BA
:106B3000B0EE480AFEF716F8BAF1030F94BFBDF89D
:106B40000C30059B013308EE103A4FF0000A6FF04D
:106B50000102049B07921FFA8AF5AB4227DB06EB82
:106B6000850797ED000AFEF7E1F9B4EE409AF1EEE1
:106B700010FAC8BFB0EE490AF4EE408AF1EE10FAFE
:106B8000F8EEC87A48BFB0EE680A87ED000A27EE33
:106B9000800A0AF1010A80EE290A12F077FD079AAD
:106BA0005543BDEEC00A10EE103A7B53D1E7069B69
:106BB0001F1F374497ED000AFEF7B8F9F4EEC08ABC
:106BC000F1EE10FA54BF10EE100A18EE900A11F010
:106BD00071FD7BA3D3E9002311F00CFC12F0BAF88D
:106BE000B8EEC88A00EE100A28EE000A386080EE7F
:106BF000290A12F04BFD04F10044013C039A0121E3
:106C000008A8BDEEC00A10EE103A26F81430002392
:106C1000FDF7ADFC089B002B00F0CB800023149AFD
:106C200001210CA8FDF7A3FC0C9B002B00F0BF80FA
:106C30004FEA8B0306930024DDE91173DB1BB4EBF1
:106C4000A30F80F0A680214611A8FEF705FE10983C
:106C5000149A57F8241007698B18BB4284BFD21BC3
:106C6000D2180C9BFEF74EFCA5000746002840F00A
:106C70009480059B0093089A039B14990C98FEF747
:106C8000D1FF0746002840F08880089F0699DFED75
:106C9000527A3A1D3B460A44B3EC017A9A4277EEA7
:106CA000877AF9D1F5EE407AF1EE10FA08BFDFED00
:106CB0004B7AB9F1000F04D0D9F800301D44C5ED6E
:106CC000007AD8F80830D8F800209B0004FB032392
:106CD00035464FF0000C049A624558D0B5F800A034
:106CE00035F8021F039AB5F802E072450CF1010C69
:106CF00006D83B4B3B4A3C4840F26D110BF054FE2A
:106D0000A1EB0A0B07EB810207EE10BAAEEB010B09
:106D100012681A6006EE90BA0AF1010207EB8A00C7
:106D2000724501D30433D6E78A4215D207EE90AA02
:106D3000B8EE676A07EE902AF8EEE77A77EEC67A41
:106D4000B8EE476AC7EE865A90ED016AD3ED007A35
:106D5000E5EE867AC3ED007A8A4215D907EE902ACD
:106D6000B8EEE76A07EE90EAF8EE677A77EEC67A51
:106D7000B8EE666AC7EE865A90ED016AD3ED007AE6
:106D8000E5EE867AC3ED007A01320430C8E70134BB
:106D900052E74046FEF744F800270CA8FDF7FBFB3E
:106DA00008A8FDF7F8FB15A8FEF798FB93E6074F38
:106DB000F3E7064FF4E70D4F8DE600BFAFF3008019
:106DC000FCA9F1D24D62503F39D6010016FCFFFFFD
:106DD000BF4100001D41000000000000FFE6DB2E67
:106DE000E7D601002DD8010009D7010014FCFFFFF0
:106DF0002DE9F04F2DED048B876891B01E46B74208
:106E00009DF88830BDF878A00793044688469146DF
:106E1000B0EE408AF0EE608ABDF88CB006D0624DCC
:106E2000284611B0BDEC048BBDE8F08F5A464946A8
:106E3000D8F81000FDF780FA65688542EFD100238D
:106E40005246294608A8FDF792FB089B002B00F04C
:106E5000A8800023012229460CA8FDF788FB0C9B83
:106E6000002B00F09680219B0393209B0293BDF89A
:106E70007C30CDF810B0CDE900A3F0EE680AB0EE9A
:106E8000480A4B4642460CA908A8FFF7B5FD05463F
:106E900000287FD108A8FDF78FFE0546002879D18C
:106EA000012108A8FDF7F6FD0546002872D1079BD1
:106EB000D3B9DDE90983089AFF1A4FEA830EBF00B0
:106EC00053420021884565D091464FF0000C66453D
:106ED0005BDD206809EB030A504459F804ABC0F8A5
:106EE00000A00CF1010CF2E7304ADFF8DCB0DFED76
:106EF000309A8046DDE9093143450898D9D90C9B81
:106F00009FED2C0A53F82830079203EB020A0AEA95
:106F10000B0AA3EB0A0307EE903AB7EE008A37EEAE
:106F2000C88A4FEA8109B0EE691AF0EE480A08FBF8
:106F3000090912F0F1FB9FED201AB0EE409AF0EE35
:106F4000480A9FED1E0A12F0E7FB68EE088AB0EED1
:106F5000401AF0EE680AB0EE490A12F0DDFBB0EE1E
:106F6000481AF0EE680A12F0D7FBB0EE401A00EEB5
:106F700010AADFED130ABAEEE40A12F0CDFB08F115
:106F8000010889ED000A079AB4E7013172443B44D5
:106F900098E70C4D0CA8FDF7FEFA08A8FDF7FBFAE0
:106FA0003EE7084DF9E700BF14FCFFFF5555D5C07B
:106FB0006DF48EBE78606C3E2D71FFBE1AE5A93E61
:106FC0001872313F16FCFFFF000080FF2DE9F04FE3
:106FD0002DED028B134699B09788D2F814A092ED4C
:106FE000068AD2ED078A126A09925A6A0A92D3E98E
:106FF0000AB29E680B92012E1A6B089280460C46CC
:10700000D3ED0D7A9A6B7CD17B1E032B7BD8036961
:10701000002B7BD0BCEEC07A11ADB0EE670A014602
:10702000002328468DED077AFEF7FCFA384B1D60E9
:1070300000230E930CA8D8F810301093FEF75CFCD8
:107040003A460799D8F81000F0EE680AB0EE480A00
:10705000FDF772F9D4E901121FFA8AF808FB00F96A
:10706000034602FB01F0814516D92A48079305F033
:107070008BF8079B2848294F4246194605F084F8AB
:107080000CA8FDF76BFA2846FDF764FF384619B0E7
:10709000BDEC028BBDE8F08FC4E90138089B039377
:1070A0000B9B0293BDF828300193BDF82430009368
:1070B000CDE904675FFA8AF3F0EE680AB0EE480A99
:1070C000079A0CA92046FFF793FE074620B1014618
:1070D000134805F059F8D3E71FFA8BF161B1034665
:1070E00032462046FEF79CFC064628B101460D4874
:1070F00005F04AF83746C3E70123C4F808906360F7
:10710000BEE7064FC2E76FF47D77BFE7064FBDE7E6
:107110007C070020DFD50100F3D5010014FCFFFF40
:107120000CD60100EFDA010010FCFFFFF8B5144B9C
:10713000144E1A68144B96F83C701A61134B144D98
:107140001B6833660024B8002E602C7205F016F818
:107150002346686022469F4203D940F8232001332A
:10716000F9E7C5E90362022327211022094800F04C
:1071700059F809490948BDE8F8400EF012B800BFB7
:10718000FC00002004000020B8000020041F0020A4
:10719000081F00201C1F002084D90100F41E0020BD
:1071A00010B5064C06480DF0B1FF2046FDF74EFE27
:1071B0006068BDE8104004F0E5BF00BF081F002074
:1071C000F41E002010B5134C204600F029F920468B
:1071D00000F048F8204600F083F8002211462046CF
:1071E00000F092F8022109200EF08AFC01210B2008
:1071F0000EF086FC012108200EF082FC01210A20FD
:107200000EF07EFC4FF416510348BDE810400CF020
:10721000E3BF00BF1C1F002000300020002070478B
:107220007047FFFF70B50025034E45600660017290
:1072300042738373C57370BDA0DB010070B5084C49
:1072400005460E46017A204600F0AFFDE97B204658
:10725000314300F03DF92046BDE8704000F02CB904
:107260002C1F00200823C3730021FFF7E7BF38B5A8
:107270000C4641F004010546FFF7E0FF01200EF047
:10728000BBFD284604F0FB01FFF7D8FF3220BDE824
:1072900038400EF0B1BD38B504460D46FFF7CEFFBD
:1072A00029462046BDE83840FFF7E1BF70B50D46DE
:1072B00021F00F01144611430646FFF7ECFF44EAA4
:1072C00005113046C9B2BDE87040FFF7E4BF08B50C
:1072D0000122FFF7EBFF012008BD0022FFF7E6BF08
:1072E00008B50121FFF7F9FF4FF4FA60BDE8084047
:1072F0000EF082BD08B50221FFF7EFFF4FF4FA60F0
:10730000BDE808400EF078BD7FB50E4B1546064629
:107310000C460FCB0DF1100C0CE90F00337BAB4288
:107320003CBF03F1FF35EDB204AB03EB85053046FE
:1073300055F8101C214461F07F01C9B2FFF7CDFF61
:1073400004B070BDB0DB010008B5817A41F00402E1
:10735000827241F00C01FFF7C0FF08BD10B5012A91
:1073600088BF417A027388BF41F00801044688BF94
:1073700041722BB1012A02BF437A43F004034372E6
:1073800032200EF03DFDE17B2046FFF757FF4FF422
:107390007A700EF035FD30212046FFF77CFF41F278
:1073A00094100EF029FD30212046FFF774FF41F2C2
:1073B00094100EF021FD30212046FFF76CFF96203F
:1073C0000EF01AFD20462021FFF765FF617A204666
:1073D00041F02001FFF781FF0423A3722046FFF74D
:1073E000B3FF2046FFF77CFF02232046E37206210D
:1073F000FFF773FF2046BDE81040FFF77BBFFFFF9C
:1074000010B50446054800F011FC00236372A27B0E
:10741000617B2046BDE81040FFF7A0BF2C1F002075
:10742000FFF7EEBF4309012200F01F0002FA00F04F
:107430002033044A42F82300BFF34F8FBFF36F8F0E
:10744000704700BF00E100E003681B78092B0BD8F0
:107450000A4A52F823303BB11A7F2AB10279012A35
:1074600003D1032283F82E207047022A01D1012282
:10747000F8E7032AF8D10222F4E700BFC82700206A
:1074800003681B78022B0BD80A4A52F823303BB111
:107490001A7F2AB10279012A03D1032283F82E2010
:1074A0007047022A01D10122F8E7032AF8D102220B
:1074B000F4E700BFBC270020036801211B6B1847BD
:1074C00010B403689C6B0123A4465DF8044B60472D
:1074D00007B5037F8DF8071063B1437FC3B190F800
:1074E0002C309BB1D0F83834FE2B07D9012380F81B
:1074F0002D304360002003B05DF804FBC2189DF8F6
:10750000071082F833120133C0F838340120F2E753
:10751000D0F82831002BF9D001220DF10701A43059
:107520009847F3E7C0F840147047C0F84414704718
:1075300090F83C34D0F83404C01A704790F83C34CA
:10754000D0F834148B4202463FBFC118013391F882
:10755000320382F83C3428BF4FF0FF30704790F878
:107560003C34D0F8342493423ABFC01890F8320328
:107570004FF0FF30704790F82E30022B03D090F878
:107580002E30032BF7D1704738B5037F0446CBB1BB
:10759000437F4BB3D0F81C31A3B190F98B00FFF7B8
:1075A00041FF94F98A00FFF73DFF94F98C00FFF743
:1075B00039FF94F98D00FFF735FFD4F81C3104F141
:1075C0003C009847A369154D102235F83310002070
:1075D00008F022FF6369102235F83310002008F00C
:1075E0001BFF0023237738BDD0F83031002BE9D0C2
:1075F00090F9E500FFF716FF94F9E400FFF712FF9A
:1076000094F9E600FFF70EFF94F9E700FFF70AFF91
:10761000D4F8303104F1A400D3E700BF9CFE010090
:10762000F8B5037F04460D46164693B1437F4BB130
:107630008F18BD420BD0236815F8011B1B6820462C
:107640009847F6E7D0F828310BB1A4309847304678
:10765000F8BD1E46FBE7FFFF38B5037F04460D4625
:1076600033B1437F23B1D0F81C310BB13C30984784
:10767000637FDBB1294BC4F880501A6A94F8243038
:107680005BB327490F23002284F833308D424FF03B
:10769000010384F8312084F8343015D10E2384F8A6
:1076A0003030FF2384F8323084F82F20237F53B109
:1076B000D4F800313BB104F17C0104F13C0098475F
:1076C00008B10023237738BD022284F83020CC2271
:1076D00084F8322084F82F30E8E7124B1B68C2F39D
:1076E00002618B400E49C2F302328D4223FA02F34B
:1076F0000D4AB3FBF2F303F1FF3208D00B4B9D426E
:10770000D4D141F20F03238784F83720CEE741F626
:107710001A320133228784F83730C7E700E001408E
:10772000A0860100842F0020006CDC02801A060075
:1077300017B4D0F8243101914BB10169019A00F5D9
:107740009A742144A43003B05DF8044B184701201B
:1077500003B05DF8044B70477FB54368019303683D
:107760001A78022A46D81A783B4B53F82240002C4C
:1077700040D0237F002B3DD0037A012B03D103237C
:1077800084F82E3036E0022B1DD1012384F82E30F0
:10779000019E04F59A753246294604F2323012F001
:1077A000D7FE0021C4F83464216184F83C14FF2220
:1077B000284612F0F1FED4F84034DBB1019804B051
:1077C000BDE870401847032B01D10223D8E7042BF2
:1077D00012D184F82E302369019A1344FE2B2DD840
:1077E00001212046FFF7A4FF0290029B13B92369F1
:1077F0000133236104B070BD052B09D184F82E300C
:10780000D4F84434002BF5D004B0BDE870401847DC
:10781000062B18D1042384F82E302369019A1344CF
:10782000FE2B0BD801992046FFF782FF0390039BA4
:10783000002BDFD1019A23691344DAE700212046A7
:10784000FFF776FFD6E7072B01D10523D6E7082BF4
:10785000D0D1062394E700BFBC270020F0B580F804
:1078600025309DF8143080F83D340025DF234FF497
:107870007A76C0E905121E4F07600122C0E9015661
:1078800005610577427780F82450866280F82C5095
:1078900080F82D50C0F80051C0F80451C0F80851CC
:1078A000C0F80C51C0F81051C0F81451C0F818516C
:1078B000C0F81C51C0F82051C0F82451C0F828511C
:1078C000C0F82C51C0F83051C0F83454C0F83854C6
:1078D00080F88A3080F88B3080F88C3080F88D30DA
:1078E00080F8E43080F8E53080F8E630F0BD00BF85
:1078F000C8DB01002DE9FF414369002B044603DA90
:10790000002004B0BDE8F0818269002AF8DB8B42D8
:10791000F6DA8A42F4DAD9B20222684602AE10F0F0
:1079200011FC30460322217E10F00CFC00203DF8B3
:10793000101000258B1109B336F81520F2B183EA37
:107940009217FF061AD181EA0207FF0716D403F047
:107950001F0312F00100236217D1022BD0DCA369B0
:107960001D4D84F8240035F833101C4A1C4808F0DB
:1079700053FD6369194A35F8331028E00135032DAA
:10798000D9D101300328D2D1BAE7092BB8DC12F4DF
:10799000F04FA369134F104E11484FF0010584F8C2
:1079A00024500CBF4FF080624FF0A0623A4311F4B4
:1079B000F04F36F833100CBF4FF080684FF0A068DE
:1079C00008F02AFD636936F8331048EA07020448D4
:1079D00008F022FD012094E79CFE0100100401073D
:1079E000A84600201000010073B501250577044664
:1079F00006F0AFFF01462046FFF77CFF237F1840CB
:107A00002077002800F09280637F002B00F08980AF
:107A100023686B499B6A2046984794F82430226A71
:107A2000002B57D0674B43F82240674BC4F8003116
:107A3000664BC4F80431664BC4F80831654BC4F892
:107A40000C31654BC4F81031644BC4F81431644BED
:107A5000C4F81831634BC4F81C3104F12F03C4F887
:107A6000A030614BC4F89830236A554A84F87C30C2
:107A70000023C4E9202394F82520C4E924339A4242
:107A800004F17C030CBF01220222C4F89C300C23B9
:107A900084F8882084F88930637F04F17C0604F13F
:107AA000D80500960195002B7BD094F82430002B4C
:107AB00072D00BF0F5FC6A4606210BF0EDFE237F39
:107AC0001840D4F800312077314604F13C00984743
:107AD00050BB2BE0454984F8355041F82240444AD8
:107AE000C4F80021434AC4F80421434AC4F80821D9
:107AF000424AC4F80C21424AC4F81021414AC4F851
:107B00001421414AC4F81821404AC4F81C2104F148
:107B10003502C4F8A0203E4AC4F8982084F83630D4
:107B2000A2E794F824301BB10023237702B070BD84
:107B3000226A2E4984F8D82041F82240204AC4F80D
:107B4000DC20B4F8F820A4F8E02094F8252031498E
:107B5000C4F82011002A3049C4F824110CBF0122B6
:107B600002222E4984F8E22040F60C42C4F8281183
:107B7000A4F8E8202A492B4AC4F82C11C4F8EC20B8
:107B80002949C4F8301104F1D80284F8E33084F8AC
:107B9000EA30C4E93C237FE70BF082FC6A4605210A
:107BA0008BE70BF07DFC07216A460BF075FE237F07
:107BB00018402077D4F82031294604F1A40086E744
:107BC000A0860100C827002071FD000081FC000094
:107BD00095FB0000A5FA0000C5FA0000CDFA0000F0
:107BE000D9FA0000F1FA000049740000BC27002017
:107BF000790F0100910D0100C50D0100F50F010085
:107C0000510C0100590C0100650C010041100100EC
:107C100081740000B5060100C1040100F9040100EF
:107C20002D050100597700003905010010B50368E2
:107C300004465B6A9847012363772046BDE81040FD
:107C4000FFF7D2BE38B5036804465B6A0D46984715
:107C500000236377A4F8F8502046BDE83840FFF7CA
:107C6000C3BEFFF7EFBF2DE9F0471E46037F044672
:107C700092463BB3D0F8103163B300F13C0990F861
:107C8000882048469847054668B9D4F8047157B12A
:107C90009DF8243084F82E0083F0010332465146CB
:107CA0004846B84705460EF0EFF880460EF0ECF86F
:107CB000089BA0EB0800984204D294F82E300BB930
:107CC000002DF3D094F82E30012B0CBF304600204D
:107CD000BDE8F0870125E6E72DE9F0479A46037FE6
:107CE000089F04469146002B39D0D0F8103123B3B9
:107CF00000F13C0890F8882040469847054668B94E
:107D0000D4F8086156B19DF8243084F82E0083F031
:107D10000103524649464046B04705460EF0B4F8C6
:107D200006460EF0B1F8801B874208D994F82E3031
:107D30002BB9002DF5D004200FE00125EEE7002D32
:107D4000F9D194F82D3063B994F82E305BB194F8E2
:107D50002E30032B14BF00200220BDE8F087062040
:107D6000FBE70120F9E70520F7E737B590F8FC506D
:107D700090F838340191826A0092294600F2332249
:107D80000446FFF7A9FF002384F82C3003B030BD70
:107D9000037F4BB10023012280F82D30C0F8FC1086
:107DA00080F82C20C0F838347047FFF7F1BF2DE978
:107DB000F3411646027F9DF8205004460F46984630
:107DC000002A31D0B5B10368DB6A9847032D28BF7C
:107DD0000325013DEDB2FF2D236807D0E90028FA05
:107DE00001F11B68C9B220469847F2E71B6B0021DE
:107DF000204698479DF82430FF2E28BFFF260033E9
:107E000018BF01230193A36A009304F23232F3B244
:107E100039462046FFF727FF0023C4F8340484F8CE
:107E20003C3402B0BDE8F0811046FAE707B5019393
:107E300000230093FFF7BBFF03B05DF804FBFFFFD7
:107E400013B5002423460094122213210548FFF79E
:107E500005FD009423461B221A210348FFF7FEFC70
:107E600002B010BD2C1F00207423002043684A6814
:107E700001884088484300B97047F3EC017A67EE07
:107E8000807A0138E2EC017AF5E7F0B5038845889D
:107E900044684A684FEA830CAF00104629462646DC
:107EA00031B9013B3C4402F10402F6D11846F0BD61
:107EB00056F804EBC0F800E001396044F0E730B553
:107EC000D0ED007A051D00240120814203D1C2EDCE
:107ED000007A1C6030BDB5EC017AF4EEC77AF1EEA1
:107EE00010FA54BFB0EE677A0446F0EE477A0130DC
:107EF000EBE730B5D0ED007A051D0024012081426A
:107F000003D1C2ED007A1C6030BDB5EC017AF4EE0D
:107F1000C77AF1EE10FAD4BFB0EE677A0446F0EEFD
:107F2000477A0130EBE7F0B500238E469E4500D836
:107F3000F0BD02EB430432F813506488AD08A40886
:107F400050F825C050F8241040F82510AF00A600C6
:107F500040F824C03D1D341D47590659465102338F
:107F60000751E3E72DE9F04781462DED028BB9F883
:107F70000070D9F8042001EB8708084679088B00C7
:107F8000FF08C51806464344444602EB07179446CB
:107F9000BC4506F1100605F1100503F1100304F1CC
:107FA00010040FD18CB22146022300F0FBFABDEC85
:107FB000028BD9F80420214640460223BDE8F04751
:107FC00000F0F0BA14ED040A16ED046A54ED030A49
:107FD00016ED034A53ED046A53ED034A14ED027A99
:107FE00014ED015A55ED032A15ED023A55ED013A0B
:107FF00053ED027A53ED015A16ED021A15ED042ADB
:1080000056ED011A36EE008A36EE406A06ED048A15
:1080100034EE208A34EE604A06ED038A31EE078A98
:108020000CF1100C06ED028A31EE858A31EEC55A4C
:1080300072EE261A06ED018A45ED041A72EEA41AB4
:1080400074EEE24A45ED031A73EE271A77EEC37A0F
:1080500045ED021A73EEA51A75EEE35A45ED011AC5
:108060005CED033A1CED043A64EE232A76EEC26A14
:10807000E6EE032A23EEC66A44ED042AA4EE036A60
:1080800031EE477A04ED036A23EE646AA6EEA36A32
:1080900066EE836A03ED046AE4EEA36A43ED036AC5
:1080A0001CED026A5CED016A65EE264AE7EE064ABF
:1080B00026EEC77A44ED024AA5EE067A04ED017A6F
:1080C00026EE657AA7EEA67A67EE867A03ED027A47
:1080D000E5EEA67A43ED017A5AE72DE9F04F2DED52
:1080E000048B8FB00390039B039A08461988D0ED48
:1080F000007A5268029249088B00C418E61896ED7F
:10810000007AD6ED015AD4ED013A37EE876A77EE60
:10811000C77A90ED017A77EE256A77EE655A94ED8D
:10812000007AF518D5ED004A95ED014A37EE065A6A
:108130004A0835EE245A089215EE101A024636EE19
:10814000476A42F8081B94ED015A95ED013A0A92EC
:1081500036EE855A224635EE035A36EE646A80EDD5
:10816000015A33EEA75A77EEE37A35EE445A76EEAB
:10817000E36A15EE101A35EEC75A42F8081B35EEC1
:10818000245A0B9216EE101A324684ED015A77EEFD
:10819000847A42F8081B76EEC46A0C9217EE901AA5
:1081A0002A46C6ED016A42F8081B37EE257A0D9281
:1081B000029A37EE647A083285ED017A0992089ABC
:1081C000911E4A080492099A0592A5F1040C049A9A
:1081D000079263440022A4F1040AA6F1040E01935D
:1081E00000F1100904F1100706F1100805F1100163
:1081F0000692069A18ED027A58ED012A19ED025AF4
:1082000019ED016A57ED025A57ED017A019B11ED04
:10821000024A11ED013A083A0692059A75EE473A7C
:1082200076EE624A35EE075A36EE226A083234EEAE
:10823000E52A77EEA36A35EE657A76EE672A75EE63
:10824000A44A73EEE77A75EE855A0592079A083BC1
:1082500076EEC36A32EE042A37EE447A72EEC32A0F
:1082600077EE837A74EEC44A75EE845AAAF1080A4E
:10827000AEF1080EACF1080C019309F108090837BA
:1082800008F108080831002A74D1049B099ADF001C
:108290000A9B3A443B449A461146029B049ACAED13
:1082A000005A4FF0180E03EB021C0EFB023E0B9A15
:1082B0003A4490460C9AD8ED015A3A4491460D9AA8
:1082C0003A4436EE256AD2ED015ABDF8207036EEFA
:1082D000256A04238AED016A91ED015AD1ED005A15
:1082E00025EE026A3946A5EEA66A66EEC56A88EDF5
:1082F000006AE5EE826AC8ED016ADCED055A9CED84
:10830000046A65EEA26AE6EE076A27EE657AC9EDB1
:10831000006AA6EE227A89ED017A9EED076ADEED0B
:10832000066A26EE247AA6EEA77A67EEC67A82ED72
:10833000007AE6EEA47AC2ED017A029A00F032F9F0
:10834000039A394620460423526800F02BF9039A19
:10835000394630460423526800F024F9039A5268E3
:108360000423394628460FB0BDEC048BBDE8F04F1E
:1083700000F018B949ED045A57ED035A019B059ACC
:1083800036EE256A51ED035A36EE256A6FF0010B81
:1083900009ED036A9CED016ADAED011ADAED023AA1
:1083A000D3ED020A9EED025A93ED013A9EED018A49
:1083B00031EE864A71EEC61A9CED026A73EE868A29
:1083C00035EE609A73EEC63A38EEC56A35EE285A35
:1083D00034EE481A35EE205A73EEC85A8AED025A26
:1083E0009EED015A34EE054A93ED015A029B34EE9C
:1083F000054A75EE835A8AED014A12ED015A12EDD3
:10840000024A069A31EE431A33EE483A39EE210A0F
:1084100073EE633A25EE023A0BFB023BA4EE263ADA
:1084200066EEC56A07ED043AE4EE026A36EE606A6B
:1084300047ED036A64EE406A79EE611AE5EE856AFB
:1084400065EE845ACEED026AE0EE055ACEED015A91
:10845000DBED015ADBED006A25EEA25AA2EB820B9E
:10846000A6EE875A9B4427EE657A08ED045AA6EEDD
:10847000A27A08ED037A25EEC17AA6EE667A26EE98
:10848000256A8CED027AA1EE666A8CED016ADBED5D
:10849000006A9BED017A019B079A27EE246A013A54
:1084A000A6EEA76A079267EEC77A01ED046AE6EEC8
:1084B000A47A41ED037A66EEE17AE3EE877AC3EDC2
:1084C000027A63EEA67AE1EE877AC3ED017A90E64E
:1084D000012A2DE9F04106460D46174698460488C4
:1084E00039D0B4F5807F49D021D8202C46D01AD875
:1084F000102C3ED0B8F1000F04D0B268B1892846E4
:10850000FFF711FD012F0CD107EE904AF8EE677AC4
:10851000F7EE006A86EEA77A0023A34205F108056C
:1085200031D3BDE8F081402C08D0802CE1E7B4F5D0
:10853000806F1ED009D8B4F5007FDBD101237268AB
:108540002146284600F02EF8D4E7B4F5006F15D088
:10855000B4F5805FF1E70B1D0022A24203F108038E
:10856000BFD253ED027AF1EE677A43ED027A01321F
:10857000F3E729463046FFF7F5FCBBE729463046CE
:10858000FFF7ABFDB6E755ED027A67EE877A013368
:1085900045ED027A55ED017A67EEC77A45ED017A2D
:1085A000BBE7FFFF2DE9F04F2DED108BDFEDCE5A2D
:1085B0009DB09B4601900D9102920391B0EE655AD9
:1085C000039B0199DA08540101EB040E1820D10035
:1085D00000FB02F5179128206FF017015143189501
:1085E00000FB02F50EEB010C3020169515010CEB8B
:1085F0000407159500FB02F538207E1850430C95B2
:108600000490351901982944DB0001EB040900F1BD
:1086100004084FF0000ADEED007A18ED017ADCED77
:10862000003AD6ED004A99ED003AD1ED002A77EEF6
:10863000276A37EE677AD7ED007A33EEA76A73EED2
:10864000E73AD5ED007A34EEA74A74EEE77A72EE97
:10865000834A36EEC48A36EE640A76EE846A36EED3
:10866000246A72EEC32A76EE864A76EEC66A48ED32
:10867000014ACEED006AD8ED004A9EED016A9CEDFC
:10868000014A96ED013AD9ED011A74EE866A34EE8C
:10869000C66AD7ED014A34EE242A34EE644AD5ED99
:1086A000014A33EE241A73EE644A91ED013A73EEF7
:1086B000210A33EE613A76EEC11A76EE816A32EE25
:1086C000601A32EE202A76EE820A76EEC26AC8ED91
:1086D000000ACEED016A78EE016A38EE412AC6ED55
:1086E000006A71EEC06A85ED002AC6ED016A70EE7F
:1086F000216A34EE432AC5ED016A73EEA26A73EE75
:10870000E21A34EE034AF0EE673AE6EEE53A9E44AA
:108710001E44E6EEA57A1D449844F0EE462AF0EE9B
:10872000466AB0EE646AB0EE473AA4EE256AA1EE5E
:10873000A57AE2EE652AE2EE256AB0EE642AA1EEA1
:10874000E53AA4EE652A77EE064A37EE467ACCED96
:10875000004A89ED007A33EE027A33EE423A87ED31
:10876000007A36EEE77A77EEA67A81ED003A8CED64
:10877000017AC9ED017A72EEE37A73EEA23AC7ED9F
:10878000017AC1ED013A039882440D9850459C440A
:108790001F44194499443FF63EAF072A40F2CF8167
:1087A0004FEACB0114911498029901440B914FEABE
:1087B0000B1113911398029901440A91182101FB9E
:1087C0000BF1129112980299014409914FEA4B1151
:1087D00011911198029901440891282101FB0BF194
:1087E00010911098029901440791302101FB0BF17F
:1087F0000F910F98029901440691382101FB0BF16A
:108800000E910E98029901440591019901980C442A
:10881000179901448E46169901448C4615990144D6
:108820000F460C9901440E46189901440D460499CF
:1088300001440120049004F10C0015900EF10C008D
:1088400016900CF10C00179007F10C00189006F12F
:108850000C008846199005F10C001A9008F10C00E4
:1088600000211B900B98049CD0ED001A0A9890ED03
:10887000008A0998D0ED004A089890ED009A079870
:10888000D0ED003A0698D0ED000A0598D0ED002A08
:108890000B9890ED011A0A98D0ED018A099890ED95
:1088A000014A0898D0ED019A079890ED013A069890
:1088B00090ED010A059890ED012A019800EBC4099A
:1088C000159800EB0108169800EB010E179800EBC5
:1088D000010C18984718199846181A9845181B98AB
:1088E000441804980C9001E0F304353F58ED017AE8
:1088F0005EED016A1CED017A99ED00AA17ED01BA4F
:1089000015ED01EA3AEE276A36EEC7DA3AEE67AAC3
:1089100076EE877A56ED016A3BEE267A3BEE66BA32
:1089200054ED016A7EEE26AA36EE47FA77EEEAEAC1
:1089300036EE076A77EEAA7A3EEE66EA36EE277AD8
:1089400076EE67AA89ED007A99ED016AD8ED007A92
:10895000DEED00CAD7ED006AD5ED00FAD4ED00DAFD
:1089600036EE277A76EE67BADCED007A3CEEA76A3F
:108970007CEEE7CAD6ED007A36EEA7CA76EEE77A45
:108980007FEEAD6A7FEEEDDA77EE4CFA37EE0CCA89
:1089900036EE667A36EE266A7FEE076A3FEE477A53
:1089A0003CEE06FA3CEE46CA89ED01FA29EE8C6AE5
:1089B0003FEEEEFAA9EE2A6A99447EEEAFEA08EDA0
:1089C000016A2AEEE96A7DEE4EAAA9EE0C6AB0EEC3
:1089D0004ACA88ED006A28EE8F6AAAEEC5CA984492
:1089E000A8EE266A66EEE86A07ED016AE8EE0F6A0D
:1089F0003CEEED6AC7ED006A60EE2E6AAAEE85AA2B
:108A00001F44E0EE876A27EE407A46ED016AA0EE49
:108A1000AE7A7DEE0E6A86ED007A3CEEAD7AF0EE2F
:108A20006BCAE6EE05BA1E44E6EE45CAB0EE6B6AC6
:108A3000F0EE67BAE7EE45BAE7EE057AF0EE4BAA3C
:108A4000A6EE85BA3CEE2B7AE6EEC5AA7AEE276A48
:108A50007AEE677A3CEE6BAA36EE4BCA3BEE066ABC
:108A600061EE0CBA3CEEEABAE1EEA6BA66EEC16A75
:108A70004EED01BAE1EE8C6A7AEEACAACEED006A58
:108A800062EE066A9E44E2EEA76A44ED016A67EE72
:108A9000C26A63EE0B7AE2EE866AE3EE877AC4ED91
:108AA000006A27EE437A4CED017A64EE2A7AA3EE4F
:108AB0008B7A1C44E4EE8A7A8CED007A45ED017ADB
:108AC0006AEE447A9C44E4EEAA7AC5ED007A0C98EA
:108AD0008246039882440D98CDF830A082460C98C7
:108AE00082451D443FF602AF0498149C0130049067
:108AF0000B9820440B90139C0A9820440A90129CD7
:108B0000099820440990119C089820440890109CD2
:108B10000798204407900F9C0698204406900E9CCE
:108B20000598204405900498824201F108017FF4E1
:108B300099AE4FEACB031FFA83FB039240E51DB0C9
:108B4000BDEC108BBDE8F08FD1ED017AD1ED005A6C
:108B5000038877EEA77AB0EE006AF0EE676AE5EE7A
:108B6000866A10B5D5EE867A4469B6EE007A66EE6E
:108B7000876A013B67EE877A04F1100001F1100467
:108B800001EBC301C2ED006AC2ED017A083910326F
:108B9000F0EE476A91ED034A91ED027A54ED023A04
:108BA00054ED017A50ED025A50ED014A37EE635A06
:108BB00034EE276A37EE237A77EEC47AA5EE857A0B
:108BC000013B002BE4EE857A00F1080002F1080277
:108BD000A4EE867A04F10804A1F10801E5EEC67A54
:108BE00027EE267A67EEA67A02ED047A42ED037A42
:108BF000D0DC10BD91ED007A91ED016A038877EE2B
:108C0000066A37EE467AF6EE007A10B566EEA76A87
:108C10004469C2ED006A27EE277A013B82ED017AB2
:108C200004F10800083201F10804F0EE676A01EB74
:108C3000C301002B02F1080200F1080004F108044E
:108C4000A1F1080100DC10BD91ED034A91ED027A1B
:108C500054ED023A54ED017A10ED026A50ED014AEA
:108C600033EEC75A74EE275A37EE237A77EEC47A7A
:108C7000B1EE466AA6EE057A013BE4EE857AA4EEF3
:108C8000E57AE6EE257A27EE267A67EEA67A02EDF9
:108C9000027A42ED017ACCE72DE9F04105460F4614
:108CA00016461C464BB1FFF7A5FF22463146284623
:108CB0000123BDE8F041FFF70BBC22460123FFF77B
:108CC00007FC324639462846BDE8F041FFF73CBF75
:108CD00070B45E68089D012E08D1AD68AD0705D15E
:108CE0008C69012C02D170BC00F09DBB4FF0FF30AD
:108CF00070BC704700F090BB10B508698AB00028BE
:108D000027D14C692CBB8868012822D1C86801286A
:108D10001FD1486A0890086A079048680690096859
:108D20000591D96804911199C9680391D3E901109B
:108D30001B6841434B4302935368019313680093AC
:108D4000109A129B0E990C9801F056FC20460AB01E
:108D500010BD4FF0FF30FAE7002070472DE9F04FCB
:108D6000B3B098463D9F419E1546D7E901325A431C
:108D7000D8F80C305343B3F5007F81460C4680F29F
:108D800092800368002B00F08780BA680B927A68A3
:108D90000C92B268169272681792F268D8F8003096
:108DA0000D92B4F9202026931892D8F80830B4F91F
:108DB000242006931992D8F804302A6815931A9241
:108DC0006A6815991B92069AD8F80C30D9F800B049
:108DD0004A4352005A432492DDE916214A430D9931
:108DE00052004A432592DDE90B214A4302FB03F17D
:108DF0004FEA430A52000AFB02B22092E268139142
:108E00000699129252004A435A4321926269514292
:108E10002291216948422390069842435242521AB5
:108E20000AFB02F22D92139AC2F38F01CA000BF1D2
:108E30000800104489005A441D911492BDF82C106A
:108E4000BDF830202B9012FB01F212FB03F21499B3
:108E500002F0030201EB42012C911D990A442A926F
:108E6000A2681C9252005A432792069A53435B0011
:108E7000289300230793079B269A934280F24F8101
:108E80003C9B2D9ADDF8888013440E93429B0893F7
:108E900000235C4609934BE03946404600F0BCFA9B
:108EA00000287FF772AF4FF0FF3033B0BDE8F08F8E
:108EB0000B9B2B441193119A5B1B9542C8BF002357
:108EC0000AFB03F329930F9B1093A14646462E9B62
:108ED000B3424C465FDC209B4B4513D1089B059366
:108EE000409B0493139B0393199B0293189B01933C
:108EF0001A9B00930D9A1B9B3E98594601F00EF861
:108F00005C4608900A9B279A01330A930F9B1344EF
:108F10000F931C9B1D440A9B169A9342C8DB099B26
:108F2000219A013309930E9B13440E93129B98448C
:108F3000099B179A934231DA0E9B0F9300230A93F1
:108F40000C9B239D43442E93E5E7002E07DB159AE7
:108F5000964204DA002F02DB069A974214DB52464F
:108F6000002120462F9311F017FB2F9B544401370B
:108F70005344119A9742E8DB299B289A9944109B05
:108F8000134401361093A2E75246194620462F9308
:108F900011F0DEFAE9E7109B2F46EAE75C4540F066
:108FA000BB803C9B249A13443C93259A429B1344D8
:108FB0004293079B01335DE74946042231A811F033
:108FC000C7FA09F10409319E2FFA96F32FFA86F6B3
:108FD0004146C3EA264231A80A920422C6EA034661
:108FE00011F0B6FA319B26FB0344042208EB020180
:108FF00031A811F0ADFA319B0A9A22FB0344DDF847
:10900000248008F108030993099A2B9B9342D3D13A
:109010001D9BFA18149B2C998B424CD12A9B1F4400
:109020001A9B53F825601B9B53F825C0409B002BCF
:1090300048D03C4B9E42409B03EBC503D3E9002341
:10904000DABF06F50046361447F6FF76F11712EB45
:10905000040843EBE47908FB01F1CCF10E0C06FBAC
:109060000911A8FB06230B44CCF12000BCF1200120
:1090700003FA00F022FA0CFC4CEA000C5CBF43FA45
:1090800001F14CEA010C0CF1010C4FEA6C0C189B3D
:109090009C45B8BF9C46199B9C45A8BF9C46089B15
:1090A00023F815C001350D9B9D42BFF67AAFD84617
:1090B000B9460024A5E712F9011B33F8020B10FB97
:1090C0000144A8E74FF080431E93409B1F932CEA76
:1090D000EC739C40DDE91E23BCF1000FC6FB0423AA
:1090E0004FEAD272C8BFDDF800C11C4642EA440311
:1090F000D8BFCCF1000C012202FA0CF2013A53FA6B
:109100000CFC03EA02014FEA620248BF01329142BD
:10911000C8BF0CF1010CBAE73E9F0025C3E7002051
:10912000C3E600BFFFFFFE7FC36888689B0058430B
:109130004B6858437047FFFF2DE9F04FAFB01868F8
:10914000399E3D9DB76876681696AE680D966E6836
:10915000ED6804950D6918954D690E958D68199502
:10916000CD6803970F95D1E906A70D6A496A1F914B
:1091700011685C681D901796D8681E9520919B68B1
:10918000019363435B0043431B930D9B5268219201
:109190007343049A5B0053431C93169A039B5343F7
:1091A00043432793049B019A5B0026937B00534320
:1091B00043432493039B434325934FEA4A0343438A
:1091C0001A93002307930E9B1C44E3192C9343002E
:1091D0002D93079B1D9A934280F21681189BDDF810
:1091E00084C0DDF8F0904FF0000E5344F3462B930B
:1091F00029E0209B864A53F82B309342DABF03F5CF
:1092000000431B1447F6FF7302930E9B5B420893C7
:109210000E9B3B44013B15932C9B013B1193002378
:1092200006930993029B1946DA17CDE92812099B88
:10923000179A934216DB279B0BF1010B0CF1040CE0
:1092400009F108099E44049B9B45D2DB389B1B9A7D
:10925000134438931C9A3E9B13443E93079B01335F
:109260000793B6E7189B049A5B420A93069B02FB9E
:1092700003B33E9A02EB430314932B9B013B0593EC
:1092800000230B930B9B0D9A934212DB089B0F9AC2
:1092900013440893099B0D9A01330993069B1344C9
:1092A00006930F9A159B9B1A1593119B9B1A11936A
:1092B000BDE71699159B93FBF7F2059B93FBFAF319
:1092C00023EAE3730093119B93FBF7F38B42A8BF50
:1092D0000B4622930599019B5D18039995FBFAF5BE
:1092E0008D422B46A8BF0B462393089B01990A9DEC
:1092F00022EAE27202FB073301FB03530099389D17
:1093000001FB0A332D9901FB035310930399009B32
:109310003A9D01FB023100FB01E14B19002413933C
:10932000002325461C46229B9A4266DB3C9B1BB1D0
:10933000D9E90023A4185D41029B03FB05F1299B99
:1093400004FB0311029BA3FB04230B44DCF8001075
:10935000C1F10E01C1F12005B1F1200403FA05F5B8
:1093600022FA01F158BF43FA04F441EA050158BF5B
:1093700021431E9B199A013149109942B8BF1946E1
:109380001F9B9942A8BF1946149B19800A9B13443E
:109390000A930B9B269A01330B93149B134414934B
:1093A000199A059B9B1A05936CE7129B38F81610C7
:1093B0009B572A9323462C46BDF8A850C1FB853401
:1093C000254601361C468642EFDB0C9B01330C938D
:1093D0001A9B9844129B03441293239B0C99994225
:1093E00009DB249B109919441091259B139919446A
:1093F0000132139197E70026E5E7139B1293009B38
:10940000DDF840800C93E8E700202FB0BDE8F08F36
:10941000FFFFFE7F00207047C36888689B005843A9
:109420004B68584370472DE9F04FD0F800B0BBB0FF
:109430008A461C46459E499DBBF1000F06D1314628
:109440001846FFF7E9FF002800F39E8123682B935D
:10945000D6E90103EE68E168B7B22C97DAF810702C
:109460002497DAF808702597DAF800702D97DAF863
:1094700004701A97DAF820701B97DAF824701C979A
:10948000176852681E92AA88199222890892A288A7
:1094900017928AB20992089C179A1D976243099CF9
:1094A00062432A922A891F92B2B220921F9C199A73
:1094B0006243209C6243289282B221929AB213FBAB
:1094C00000F313FB01F39BB21893099B219C1092AC
:1094D0005B000A9362430A99530001FB03B326938E
:1094E0000899BAF80C3022934B433393BAF81430EE
:1094F0005942359108994B435B423493099B53433E
:10950000C3F38F03D9009B0023930BEB0103159347
:109510000BF10800189B084415992F9003F00303E2
:1095200001EB4301309123990B4429930A9B534348
:1095300031930A9A109B5343329300230C930C9B54
:109540002B9A934203DB00203BB0BDE8F08FBAF8C2
:109550001C30089A169353432793359B1493349BDE
:109560000B934A9B0F9300230D93BAF8183037934F
:109570005C460D9B199A934240F08280A34540F0CF
:109580000081449B2A9A13444493289A4A9B13448B
:109590004A930C9B0133D1E7BDF89430BDF890207D
:1095A000DDF82C800E947B439B1A2E93149B119311
:1095B0004FF00009219B994535D0BDF9B4300E9E7E
:1095C0003693002514E0179B119A934208D9379BD4
:1095D0002E9A05FB0320002802DB089B834217DC40
:1095E0000A9A0021304610F0D7FF0A9B01351E442D
:1095F000109B9D42E7DB0E9B329A13440E93279BF0
:10960000169A9844119B134409F101091193D1E76B
:1096100000EB080E099A4498369B314602FB0E0077
:1096200001F08CFDE1E7319B1C44269BA34217D13E
:109630000F9B0693489B0593189B0493BDF97030CC
:109640000393BDF96C3002931A9B01931D9B009309
:109650002C9A1E9B4698594600F079F95C460F906B
:1096600001371F9B9F4297DB0D9B339A01330D936C
:109670000B9B13440B93229A149B1344149378E787
:109680000027EEE7489B002B4CD053F82540D846E6
:10969000B94608F108030B930B9A2F9B934243D1D1
:1096A000239BFA18159B30998B4263D11E9A299BF4
:1096B00052F825004FF080410022CDE912121F44DC
:1096C00020EAE0721D9B9440DDE9121253F8253028
:1096D0000028C3FB04121446C8BF13984FEAD17286
:1096E00042EA4403D8BF404201228240013A03EAE1
:1096F000020103414FEA620248BF013291421A9AC5
:10970000C8BF013313441B9A9342B8BF13461C9A37
:109710009342A8BF13460F9A53550135209B9D4293
:10972000B0D12EE7489CB2E74946042239A810F090
:109730000FFF09F10409399E2FFA96F32FFA86F6E6
:109740004146C3EA264239A80D920422C6EA0346DE
:1097500010F0FEFE399B26FB0344042208EB0201B5
:1097600039A810F0F5FE399B0D9A22FB0344DDF871
:109770002C808EE712F9011B33F8020B10FB014419
:1097800091E7469F0025C9E74FF0FF30DCE62DE961
:10979000F04F85B086460E9D0195DDE90F56029685
:1097A000119E0396D5E901677743DE68DDF8509096
:1097B0007E43B6F5007F0C4690469C46DDE912BA22
:1097C0000ADA8E69012E07D1CE69012E04D105B0C7
:1097D000BDE8F04FFFF7C2BA039B1193029BCDF88F
:1097E00048B0CDE90F53019B0E9342466346214694
:1097F0007046CDE913A905B0BDE8F04FFFF79CBC5A
:1098000010B4044608461146D2E901325A43C368EF
:109810005343B3F5007F09DAA369012B06D1E3694D
:10982000012B03D15DF8044BFFF77EBC5DF8044BC0
:10983000FFF7F0BD2DE9F74F0C9D0095DDE90D57C1
:1098400001970F6986460C4690461E46DDE90FBA21
:10985000DDE911C9C7B94F69B7B98F68012F13D1B5
:10986000CF68012F10D1AF68012F0DD16F68012F84
:109870000AD18F69012F07D1CF69012F04D103B01D
:10988000BDE8F04FFFF738BA7368012B1BD1DCF845
:1098900008309B0717D1A369012B14D16B68012BEA
:1098A00011D1019BCDE90D53009B0C9342463346E9
:1098B00021467046CDE911C9CDE90FBA03B0BDE824
:1098C000F04FFFF705BA019BCDE90D53009B0C93B8
:1098D0004246334621467046CDE911C9CDE90FBA5B
:1098E00003B0BDE8F04FFFF79EBD10B40446084634
:1098F00011462269BAB96269AAB9A268012A12D1CD
:10990000E268012A0FD18A68012A0CD14A68012A2B
:1099100009D1A269012A06D1E269012A03D15DF8C1
:10992000044BFFF719BA4268012A0CD19B689B07C8
:1099300009D1A369012B06D14B68012B03D15DF836
:10994000044BFFF7D7B95DF8044BFFF765BD2DE970
:10995000F04FA9B04FEA520A1C93BDF9D0300593DD
:10996000BDF9D4300693BDF8D8300793389B0F92D9
:109970001344079A1E9301EB420302939308039347
:10998000389B219002330D931E9B019102330E935D
:10999000329B03F108081C9B08330493039B9B0034
:1099A0000C9313460C9A13442493039B0A46DB0042
:1099B0001A441292029AD3180A93079B03F00307E2
:1099C0000A9BCDF840A003EB47031D93079B1F4460
:1099D0000C9BFB1820938146109B002B40F08A8043
:1099E000389B03EB4A06DDE9203203FB0A270F9B75
:1099F000DB0779D5379B002B00F005821C682546D4
:109A0000B846039B002B40F000820C9B1F441D9B1B
:109A10000A9A934240F03A82329B53F83A101C9BC8
:109A200053F83A704FF08042002327EAE7708440F1
:109A30009946002F9046C1FB0489D8BF7B42012282
:109A40004FEAD8709A4040EA4901013A51FA03F3CB
:109A500001EA02004FEA620248BF01329042339AA3
:109A6000C8BF01331344059A9342B8BF1346069A00
:109A70009342A8BF1346389A02F81A30329B53F823
:109A80003A101C9B53F83A404FF08042002324EADE
:109A9000E4701746002C05FA00F59846C8BF1A4630
:109AA000C1FB0578D8BF62420123F80F934040EA1A
:109AB0004801013B01EA030011414FEA630348BF3B
:109AC00001339842339BC8BF01311944059B8B4237
:109AD000B8BF0B461946069B8B42A8BF0B461946DA
